:040000000C945E00FE
:100004000C948B000C9400000C94B1000C94000030
:100014000C9400000C9400000C9400000C9400005C
:100024000C9400000C9400000C9400000C9400004C
:100034000C9400000C9400000C9400000C9400003C
:100044000C9400000C9400000C9400000C9400002C
:100054001027E80364000A000100001000011000EA
:10006400010060020057652061726520696E2049B5
:100074006E7420302046756E6374696F6E0050494B
:100084004E432077617320547275650050494E4386
:10009400207761732046616C7365000080C00200A4
:1000A4000400660001006002680019006102690032
:1000B40002007A02A0000000F894EE27ECBBF1E005
:1000C400FBBFEBBFE5BF8DE0A2E0BB27ED938A95B4
:1000D400E9F780E098E0A0E6ED930197E9F7E2EA1A
:1000E400F0E085919591009761F0A591B591059007
:1000F4001590BF01F00105900D920197E1F7FB0106
:10010400F0CFEFE5EDBFE8E0EEBFC0E6D2E00C943F
:10011400B2000A921A92FA926A937A938A939A9301
:10012400AA93BA93EA93FA93EFB7EA930E94F00280
:10013400A1E6B2E00E941103A89AA8EEB3E00E94DF
:100144008A03E991EFBFF991E991B991A991999144
:10015400899179916991F990199009901895189558
:10016400E0E0EABBEBBBE7BBE8BBE4BBE5BBE1BB60
:10017400E2BBE3BFE2BFECBFEFBDEEBDEDBDECBD46
:10018400E7BDE6BDEBBDEABDE9BDE8BDE2BDE5BD49
:10019400E4BDE3BDE9BFEBB7E066EBBFE3E0E5BF79
:1001A400E0E4E4BFE0E6EABFE0E0EAB9E0E8E8B9A9
:1001B400E0E0E0BFE6B9EDB9E6BFA0E10E942203AA
:1001C4007894A898A8EEB3E00E948A039B9B05C08C
:1001D4005A924A92E2E8F0E006C09B990AC05A9209
:1001E4004A92E0E9F0E0FA93EA9380E00E94760212
:1001F40024960E94F002D2010E941103E3CFFFCFA4
:10020400BA93AA931A930A93AA81BB8112960E9465
:100214009C03309759F1AA81BB8114960E949C03D8
:100224008F01309761F00230E0E01E0798F0F8018A
:1002340031978F01AA81BB811496ED93FC93AA8117
:10024400BB811296ED91FD913196FE93EE93319719
:10025400AC81A083AA81BB810E949C03FF232AF066
:10026400ED91FD913196FE93EE9306C0AA81BB8178
:10027400EFEFFFEFED93FC93198108812596089524
:10028400BA93AA9326970E94A40310E0AC85BD8577
:10029400E0E0F0E0ED93FC93EA89FB893196EA8B88
:1002A400FB8B3197E4912E2FE03009F415C1E12F37
:1002B400E03039F4253211F411E002C00E945003F9
:1002C4000AC1E130A9F4253219F40E94500302C195
:1002D40012E040E000E02D3211F401E0FCC02B32CA
:1002E40011F44BE2F8C0203211F440E2F4C002C031
:1002F400E23039F450E013E0203311F40068EBC02D
:1003040003C0E33009F0E7C0203310F02A3308F0CB
:1003140007C0AAE05A9F502DE22FE0535E0FDBC0C6
:10032400E22FE33649F40E945703E889F989A4814E
:10033400AA930E945D03CEC0E33741F40E945703A1
:100344000E9463030E94AA021E2F0AC0E03761F4D0
:100354000E9457030E9463030E94B6021E2F086086
:1003640002600F7730E034C0E43611F0E93611F45E
:10037400046002C0E53731F4E4E5F0E0EE83FF8386
:1003840015E00CC0E83511F4086003C0E83709F043
:10039400A1C0EEE5F0E0EE83FF8314E002FF14C099
:1003A4000E9457030E946D03AB85AA233AF4EA85A1
:1003B400FB850E949803EA87FB874DE2403011F0E9
:1003C4001F5F01C00B7F04C00E9457030E946D038E
:1003D40000FD11C0151778F407FF08C002FF04C020
:1003E4000B7F242F115001C020E301C020E20E94A2
:1003F40050035150EFCF312F01FF17C03030A1F01F
:1004040003FF06C0EE81FF812591EE83FF8305C0C3
:10041400AE81BF812D91AE83BF830E9450035030C3
:1004240009F051503150EACF4BC020E3EE81FF81F7
:100434000E94A003E887F987EE81FF813296EE835C
:10044400FF83E885F985AA85BB85AE17BF0750F001
:100454002F5FA885B985EA85FB85EA1BFB0BEA8734
:10046400FB87EFCF2A3328F003FF02C0295F01C0C6
:10047400295D04FD1AC0213320F4A885B98511979C
:1004840009F409C0531710F000FF01C013C020E2A3
:1004940007FF0BC020E3006102FF07C00B7F4A93F4
:1004A4000E945D03503009F051500E9450035030B7
:1004B40009F051503150A885B985129708F0B5CF8D
:1004C40000FF08C0503031F05150E0E2EA930E943E
:1004D4005D03F8CF10E0E0CEAC85BD850E949C039F
:1004E4000E94AB0364960895FF92F82E26970E940B
:1004F400A6030E947503309719F4EFEFFFEF23C0B2
:10050400DE0116960E9494038D010E947503EE830A
:10051400FF83E0E0E887E987DE011A960E949403EE
:100524000E949C03FA93EA931A930A93E2E0F1E09F
:10053400FA93EA93DE011A96A3DE9F01AE81BF818E
:10054400E0E0EC93F9010E94AD032A96FF90089530
:10055400BA93AA93A991B991EE27FF276D916623C7
:1005640011F03196FBCF0895BA93AA93AA27BB271B
:10057400E991F9910590002011F01196FBCFFD014E
:100584000895AA93EBB3EF70AE2FE881E07FEA2BD6
:10059400EBBB8DE08A95F1F7DA9A8DE08A95F1F755
:1005A400DA988DE08A95F1F777C0AA93A881E9DFFC
:1005B400E881E295E883A881E4DF85E88A95F1F78C
:1005C4006BC0AA93E881F0E0E658FD4FE081A98171
:1005D400AE0FEBDF7980688022960895A2E00E9436
:1005E4007C03ACE0E2DFA1E00E947C03E0E06E2E3D
:1005F4007E2E0895AA93A881AA3011F0791448F0A8
:10060400E0E0EA936394A62DDCDFA881AA3009F424
:1006140043C07394D89AA881C8DFD8983DC0BA93D0
:10062400AA931A93A981BA81ED91A983BA831E2F43
:10063400E03019F0A12FDEDFF5CF1881239608955D
:10064400AA93EAB3E06FEABBD29AD09AD19ADA9825
:10065400D898D9989880E881E058E0937C02E881A2
:10066400E054E0937D02A4E1B0E00E948A030E947A
:1006740082030E9482030E948203A0E282DF88EC4C
:1006840090E00197F1F7A8E290DFA4E08EDFA5E8FF
:100694008CDFA6E08ADFA2DF219608952A93AD8538
:1006A400BE85EF85F88909950895E889F989349715
:1006B400E88BF98B0895AD85BE85EF85F88909959A
:1006C4000895A889B98914960E949C03EE83FF8338
:1006D400AE81BF810895A889B98914960E949C03AC
:1006E400EA87FB870895DE011C960E9494030E940A
:1006F4009C0308950E94D702A3E0B0E00C948A03FF
:10070400A0E30E94C30288EC90E00197F1F70895FA
:10071400109639F080ED97E00197F1F7A8951197BD
:10072400C9F708950024AF0DB01D0895F195E19522
:10073400F0400895ED91FC91119708950590F4917E
:10074400E02D08955A934A933A932A931A930A935D
:1007540008955D814C813B812A8119810881089526
:00000001FF
