:080000000C944A000C947700F7
:100008000C9400000C9400000C9400000C94000068
:100018000C9400000C9400000C9400000C94000058
:100028000C9400000C9400000C9400000C94000048
:100038000C9400000C9400000C9400000C94000038
:100048000C9400000C9400000C9400001027E803A6
:1000580064000A00010000100001100001006002A5
:100068000025640080C001002D4E414E00494E46D7
:10007800000002000400660001006002680002003F
:1000880061026C00010065026E000000F894EE2722
:10009800ECBBF1E0FBBFEBBFE5BF8DE0A2E0BB2707
:1000A800ED938A95E9F780E098E0A0E6ED93019753
:1000B800E9F7EAE7F0E085919591009761F0A5915D
:1000C800B59105901590BF01F00105900D9201972B
:1000D800E1F7FB01F0CFEFE5EDBFE8E0EEBFC0E6EA
:1000E800D2E00C9446010A921A92FA926A937A9391
:1000F8008A939A93AA93BA93EA93FA93EFB7EA93F7
:1001080026970E947E04E0E0B699E1E06E2FA0E019
:10011800B799A1E0E2E0EA9FF001E60FF0E08F0175
:10012800A0E0CF99A1E0E0E1EA9F602DA0E0CE99A0
:10013800A1E0E8E0EA9FF0016E0FA0E0CD99A1E010
:10014800E4E0EA9FF0016E0FA0E0CC99A1E0E2E0C4
:10015800EA9FF001A62FAE0FE0E0CB99E1E0EA0FAD
:10016800F0E09F01A0E0B499A1E0E0E1EA9F602DF2
:10017800A0E0B399A1E0E8E0EA9FF0016E0FA0E0EB
:10018800B299A1E0E4E0EA9FF0016E0FA0E0B19916
:10019800A1E0E2E0EA9FF001A62FAE0FE0E0B099FF
:1001A800E1E0EA0FF0E0AF01002E012A19F4E223A2
:1001B800F3231AC0E1E0F0E0E017F10721F4FA01B7
:1001C800E22BF32B11C0E2E0F0E0E017F10721F495
:1001D800FA01E20FF31F08C0E3E0F0E0E017F107CF
:1001E80029F4F901E41BF50BEA87FB87E0E0E887CF
:1001F800E9870E94C703EE85FF850E94CE03A0ED24
:10020800B7E00E941504E1E0F0E0EE83FF83AA85E1
:10021800BB850E947A04FCF4E2E0F0E00E945104FD
:10022800AE81BF810E943404A885B985EA0FFB1FFF
:10023800E887F987AA85BB85E2E0F0E00E944C04D4
:10024800EA87FB87EE81FF81AAE0B0E00E943404D0
:10025800EE83FF83DCCF0E94C703EC85FD850E94F7
:10026800CE030E9485042C96E991EFBFF991E9919C
:10027800B991A9919991899179916991F990199078
:1002880009901895E0E0EABBEBBBE7BBE8BBE4BB31
:10029800E5BBE1BBE2BBE3BFE2BFECBFEFBDEEBD38
:1002A800EDBDECBDE7BDE6BDEBBDEABDE9BDE8BD12
:1002B800E2BDE5BDE4BDE3BDE9BFEBB7E064EBBF7C
:1002C800E3E0E5BFE0E0E4BFE0E4EABFE0E0EAB98C
:1002D800E0E8E8B9E0E0E0BFE6B9EDB9E6BFA0E1E3
:1002E8000E9499037894FFCFFFCFBA93AA93A9915C
:1002F800B991EE27FF276D91662311F03196FBCF58
:100308000895BA93AA93AA27BB27E991F991059072
:10031800002011F01196FBCFFD010895BA93AA931E
:100328001A930A93AA81BB8112960E946D04309792
:1003380059F1AA81BB8114960E946D048F013097F0
:1003480061F00230E0E01E0798F0F80131978F0164
:10035800AA81BB811496ED93FC93AA81BB81129666
:10036800ED91FD913196FE93EE933197AC81A08388
:10037800AA81BB810E946D04FF232AF0ED91FD91B3
:100388003196FE93EE9306C0AA81BB81EFEFFFEF93
:10039800ED93FC931981088125960895BA93AA9341
:1003A80026970E947E0410E0AC85BD85E0E0F0E071
:1003B800ED93FC93EA89FB893196EA8BFB8B3197A5
:1003C800E4912E2FE03009F415C1E12FE03039F423
:1003D800253211F411E002C00E94DB030AC1E130AA
:1003E800A9F4253219F40E94DB0302C112E040E0AF
:1003F80000E02D3211F401E0FCC02B3211F44BE285
:10040800F8C0203211F440E2F4C002C0E23039F4FE
:1004180050E013E0203311F40068EBC003C0E33070
:1004280009F0E7C0203310F02A3308F007C0AAE02B
:100438005A9F502DE22FE0535E0FDBC0E22FE336C8
:1004480049F40E94E203E889F989A481AA930E94E9
:10045800E803CEC0E33741F40E94E2030E94EE03B2
:100468000E9479011E2F0AC0E03761F40E94E2035E
:100478000E94EE030E9485011E2F086002600F771C
:1004880030E034C0E43611F0E93611F4046002C0FB
:10049800E53731F4E4E5F0E0EE83FF8315E00CC0C6
:1004A800E83511F4086003C0E83709F0A1C0EEE5AB
:1004B800F0E0EE83FF8314E002FF14C00E94E20321
:1004C8000E94F803AB85AA233AF4EA85FB850E94CB
:1004D8002304EA87FB874DE2403011F01F5F01C01B
:1004E8000B7F04C00E94E2030E94F80300FD11C0C4
:1004F800151778F407FF08C002FF04C00B7F242FEC
:10050800115001C020E301C020E20E94DB035150DA
:10051800EFCF312F01FF17C03030A1F003FF06C025
:10052800EE81FF812591EE83FF8305C0AE81BF81F7
:100538002D91AE83BF830E94DB03503009F05150E8
:100548003150EACF4BC020E3EE81FF810E94710455
:10055800E887F987EE81FF813296EE83FF83E8858D
:10056800F985AA85BB85AE17BF0750F02F5FA88510
:10057800B985EA85FB85EA1BFB0BEA87FB87EFCF8A
:100588002A3328F003FF02C0295F01C0295D04FD5A
:100598001AC0213320F4A885B985119709F409C038
:1005A800531710F000FF01C013C020E207FF0BC073
:1005B80020E3006102FF07C00B7F4A930E94E80313
:1005C800503009F051500E94DB03503009F051506F
:1005D8003150A885B985129708F0B5CF00FF08C03B
:1005E800503031F05150E0E2EA930E94E803F8CF2E
:1005F80010E0E0CEAC85BD850E946D040E948504A4
:1006080064960895FF92F82E26970E9480040E940F
:100618000004309719F4EFEFFFEF23C0DE011696C0
:100628000E941F048D010E940004EE83FF83E0E016
:10063800E887E987DE011A960E941F040E946D046C
:10064800FA93EA931A930A93E2E9F1E0FA93EA93A8
:10065800DE011A96A3DE9F01AE81BF81E0E0EC9334
:10066800F9010E9487042A96FF900895AA93E5B39A
:10067800EF70AE2FE881E07FEA2BE5BB8DE08A952D
:10068800F1F7AA9A8DE08A95F1F7AA988DE08A95F4
:10069800F1F777C0AA93A881E9DFE881E295E883BA
:1006A800A881E4DF85E88A95F1F76BC0AA93E88111
:1006B800F0E0EF59FD4FE081A981AE0FEBDF7980C3
:1006C800688022960895A2E00E940704ACE0E2DF69
:1006D800A1E00E940704E0E06E2E7E2E0895AA9302
:1006E800A881AA3011F0791448F0E0E0EA93639405
:1006F800A62DDCDFA881AA3009F443C07394A89A18
:10070800A881C8DFA8983DC0BA93AA931A93A98173
:10071800BA81ED91A983BA831E2FE03019F0A12F79
:10072800DEDFF5CF188123960895AA93E4B3E06F2E
:10073800E4BBA29AA09AA19AAA98A898A998988086
:10074800E881E058E0936302E881E054E0936402B2
:10075800A4E1B0E00E9415040E940D040E940D045B
:100768000E940D04A0E282DF88EC90E00197F1F787
:10077800A8E290DFA4E08EDFA5E88CDFA6E08ADFA0
:10078800A2DF219608955A924A92E9E6F0E0FA9398
:10079800EA9308950E9427040E94750484E00E9449
:1007A800060328960E946703D2010C9488032A93B3
:1007B800AD85BE85EF85F88909950895E889F98999
:1007C8003497E88BF98B0895AD85BE85EF85F88958
:1007D80009950895A889B98914960E946D04EE8335
:1007E800FF83AE81BF810895A889B98914960E94B4
:1007F8006D04EA87FB870895DE011C960E941F049A
:100808000E946D0408950E944E03A3E0B0E00C948A
:100818001504A0E30E943A0388EC90E00197F1F7F1
:100828000895109639F080ED97E00197F1F7A895B3
:100838001197C9F708950024AF0DB01D0895F195DB
:10084800E195F04008956F2F660F660B762F089597
:10085800FA9FF02DEB9FF00DEA9FE02DF10D089522
:100868002AD0F6DF0EF4EBDF08950024112490E17E
:10087800AA0FBB1F001C111C0E1A1F0A18F40E0E1B
:100888001F1E01C0A1609A9599F7FD01D001089536
:1008980012D0EBDF0EF4D3DF0895E894B7FF04C05D
:1008A800A095B09511966894F7FDC9DFDEDFFD01CC
:1008B8000EF4C5DF0895E894F7FF02C0C0DF68941E
:1008C800B7FF06C0A095B095119600F8039400FAFA
:1008D8000895ED91FC91119708950590F491E02DFC
:1008E80008957A936A93FA93EA93089500240A166E
:1008F8000B0608955A934A933A932A931A930A93A4
:1009080008955D814C813B812A8119810881089570
:00000001FF
